:020000040800F2
:10000000C0070020F10100086B590008072B000809
:1000100069590008A11500080F5B000800000000E6
:100020000000000000000000000000006F59000800
:100030003D170008000000006D590008995900089C
:100040000B0200080B0200080B0200080B0200085C
:100050000B0200080B0200080B0200080B0200084C
:100060000B0200080B0200080B0200080B0200083C
:100070000B0200080B0200080B0200080B0200082C
:100080000B0200080B020008B11400080B02000864
:100090000B0200080B0200080B0200080B0200080C
:1000A0000B0200080B0200080B0200080B020008FC
:1000B0000B0200080B0200080B0200080B020008EC
:1000C0000B0200080B0200080B0200080B020008DC
:1000D0000B0200080B0200080B0200080B020008CC
:1000E0000B0200080B0200080B0200080B020008BC
:1000F0000B0200080B0200080B0200080B020008AC
:100100000B0200080B0200080B0200080B0200089B
:100110000B0200080B0200080B0200080B0200088B
:100120000B0200080B0200080B0200080B0200087B
:1001300000F002F800F04DF80AA090E8000C8244AC
:100140008344AAF10107DA4501D100F042F8AFF289
:10015000090EBAE80F0013F0010F18BFFB1A43F0A5
:10016000010318474889000068890000103A24BF3D
:1001700078C878C1FAD8520724BF30C830C144BF0C
:1001800004680C607047000000230024002500264E
:10019000103A28BF78C1FBD8520728BF30C148BFEA
:1001A0000B607047662907F03780642900F0A4804F
:1001B000732900F04C84002070471FB500F04CFC00
:1001C00004000020002106F05FFBE0601FBD10B5B9
:1001D00010BD00F03DFD1146FFF7EFFF05F01EFEDC
:1001E00000F05BFD03B4FFF7F2FF03BC00F09EFDDF
:1001F0000948804709480047FEE7FEE7FEE7FEE7BB
:10020000FEE7FEE7FEE7FEE7FEE7FEE704480549F6
:10021000054A064B70470000175A000831010008D4
:10022000C0010020C0070020C0030020C003002040
:100230000FB41CB5074B06AA7B446946009005988D
:1002400000F0DBFB0020694600F0EAFB1CBC5DF817
:1002500014FB0000E507000070B5044685690068DE
:10026000C10601D5302600E02026C00707D070BDAA
:10027000D4E9012130469047206A401C20626D1E5F
:10028000F6D570BD70B5044685690078C00707D102
:1002900070BDD4E9012120209047206A401C2062D3
:1002A0006D1EF6D570BD70B50C460546012A05D009
:1002B0002878800600D5EA69002302E0012305E0E2
:1002C0005B1C934202D2E05C0028F9D1A869E618D1
:1002D000C01AA861286A184428622846FFF7BCFFA4
:1002E00004E0D5E9012114F8010B9047B442F8D39A
:1002F0002846FFF7C7FF70BD2DE9F04106460024F0
:1003000010687529314616A510D0AFF3008000287B
:1003100002DA404213A507E031688A0701D512A529
:1003200002E0490704D511A5012401E0AFF30080E4
:1003300000210A2206F1240709E0B0FBF2FCB0FB21
:10034000F2F302FB1C00303078541846491C002898
:10035000F3D123462A463046BDE8F04100F0E2B82A
:10036000000000002D0000002B0000002000000015
:100370002DE9F0474FF0000A89460446C0F820A056
:100380002046E1688847002876D0252806D0D4E9A1
:1003900001219047206A401C2062F1E7E168204675
:1003A00000268847C4F81CA005460027C4F818A0FA
:1003B0002A2D09D0284605F0CFFB38B304EB870877
:1003C000303DC8F8185019E059F8041B204604EBDA
:1003D00087029161E1688847012F054618D1E069DD
:1003E000002820DA26F020061DE0D8F8180000EBDF
:1003F000800005EB40003038C8F818002046E1685E
:100400008847054605F0A8FB0028EED1012F0AD049
:100410002E2D08D12046E16888477F1C0546022F13
:1004200046F02006C4DBA069002803DA404246F00B
:100430000106A061F00701D026F010066C2D0AD04D
:10044000682D08D04C2D39D06A2D35D0742D35D07B
:100450007A2D33D016E0E1682F4620468847B8420F
:1004600005460AD16C2F27D04FF48060E16806431F
:1004700020468847054605E027E06C2F1AD04FF448
:10048000807006430DB3A5F14100192802D820352C
:1004900046F400664A462946204626604E46FFF747
:1004A00081FE80B101280BD0F61D26F0070000F177
:1004B000080965E74020E4E78020D7E70020D5E77A
:1004C00006F104095CE7284661E7206ABDE8F08789
:1004D0004FF0000200B5134694469646203922BFDD
:1004E000A0E80C50A0E80C50B1F12001BFF4F7AF28
:1004F000090728BFA0E80C5048BF0CC05DF804EB0A
:10050000890028BF40F8042B08BF704748BF20F877
:10051000022B11F0804F18BF00F8012B7047704775
:10052000704770472DE9F0470D46994692460446BC
:1005300000F124080168880604D5E06921F0100163
:10054000216000E00120A84201DD471B00E00027F8
:10055000A1697A1902EB0900081AA0612078C00687
:1005600002D42046FFF778FE002608E0D4E90121F6
:100570001AF806009047206A401C761C20624E45FF
:10058000F4DB2078C0060AD52046FFF765FE06E0BA
:10059000D4E9012130209047206A401C2062381E97
:1005A000A7F10107F4DC07E0D4E9012118F8050000
:1005B0009047206A401C2062281EA5F10105F3DC4B
:1005C0002046FFF75FFE2078000602D50220BDE836
:1005D000F0870120FBE770472DE9FF4F0C461E46D0
:1005E0004FF0FF378BB0D2E90001DDF860800A9050
:1005F0008A46C1F30A5505B93D46002108464FF029
:100600000000BAF1000F00F4400005DA00EB8000B2
:100610004FF4400101EA50004FEA9059B9F1010F3F
:1006200000DDB9460A9850EA4A000ED044F6105050
:10063000A5F2FF3545432F14B8F1000F1ED07542C7
:10064000291E1EDDC9F100021CE0B8F1010F4FF0B8
:10065000000001D0302103E0F24305E02154401CAA
:10066000B042FBDB30460022002121540B99C1F837
:100670000880C1E900200FB0BDE8F08FBD1B6D1CE4
:10068000DEE74A4600DA694206A800F06FFA06ABD8
:1006900093E8070003AB83E8070050460A9900F08F
:1006A0004CFB8DE80700A0F500501F380090039820
:1006B000002D09DD42F21F014A46084403A90390B8
:1006C000684600F0ABFD08E0A0F500504A461F3830
:1006D00003A90390684600F0B5FD8DE8070000040B
:1006E000000C03D04FF0FF30410800E01046B8F195
:1006F000000F03D00022009215461EE0751E05D49F
:1007000000F0AEF9303262556D1EF9D5B3460122C4
:10071000084302D000227F1C04E02078302801D159
:1007200000227F1E002A099786D01DE0112D07DACE
:1007300000F096F9303262556D1C50EA0102F5D195
:10074000084302D00098C8B10EE00021681E05E001
:10075000235C625C63542254401E491C8142F7DBD7
:10076000AB46A81B401E0990002004F80B000B9814
:10077000099AC0F80880C0E9002B7CE711264FF0E9
:10078000000859E72DE9F04F88460446D21D22F0B3
:10079000070191B0D1E90001CDE90A0105F0B8F9EE
:1007A00002460B98C00F01D02D2007E0206881077A
:1007B00001D52B2002E0202101EAC000032A099084
:1007C00001D0072A05DB03464146204600F08EF99A
:1007D0000BE12078800601D5E06900E00620B8F141
:1007E000650F814606D0B8F1660F18D0B8F1670FD3
:1007F00070D131E00020B9F1110F009001DB11231D
:1008000001E009F101030AAA01A90CA8FFF7E4FE1F
:10081000DDE90C70002609F10105834647E001205F
:100820004B4600904FF000470AAA01A90CA8FFF719
:10083000D3FEDDE90DB00C995D46002610B909F133
:1008400001000D18B9EB050003D4C0F1FF3609F122
:100850000105A5EB09002BE0B9F1010F01DA4FF01A
:1008600001090020B9F1110F0090484601DD112364
:1008700000E003460AAA01A90CA8FFF7ADFEDDE9D6
:100880000C704D4600268346207800070AD4AB45FD
:1008900000DA5D4601A8012D04DD411911F8011CA3
:1008A000302907D04F4502DA17F1040F04DA01208E
:1008B00082460FE06D1EEEE7002F02DCED1B3E448A
:1008C00003E0781CA84200DD7D1CB81B00F1010A82
:1008D0004FF000472078000703D4AA4501DB4FF012
:1008E000FF3A0021B7F1004F0DF143088DF8431096
:1008F00024D002202B23002F01DA7F422D230A214E
:10090000021EA0F1010000DC5FB197FBF1FC97FB38
:10091000F1F201FB1C7C17460CF1300C08F801CDFC
:10092000EEE7A8F1010003702188090501D54521F2
:1009300000E06521A0F1010800F8011C09980FA949
:10094000A1EB0807FF1D00B10120411901EBEA707E
:10095000A1693844081A401EA0612078C00602D45C
:100960002046FFF779FC099828B1D4E90121904786
:10097000206A401C20622078C00622D52046FFF75E
:100980006BFC1EE0002E04DBB34502DD01A8805D98
:1009900000E03020D4E901219047206A401C206209
:1009A000761CAAF101005FEA000A0AD100F054F8AF
:1009B000C0680168405CD4E901219047206A401C6E
:1009C0002062281EA5F10105DCDC07E0D4E9012145
:1009D00018F8010B9047206A401C2062381EA7F1CE
:1009E0000107F3DC2046FFF74DFC032011B043E67E
:1009F00001694A1C02610878704700B58FB0CDE9E3
:100A000001310021059105497944CDE903101146D2
:100A10006846FFF7ADFC0FB000BD0000E5FFFFFF2B
:100A20000A6802F8010B0A60704710B5436913B1F8
:100A3000AFF3008001E0FFF736FC012010BD127813
:100A400000F124010A7000224A700122EDE71168CA
:100A50004FF0FF32E9E70000004870477C010020BA
:100A600030B5B0F10A024FEA900E71F100034EEA80
:100A7000817EB0EB0E0061EB91014FEA101E4EEA51
:100A8000017E10EB0E0041EB11114FEA102E4EEAE1
:100A9000016E10EB0E0041EB11214FEA104E4EEAB1
:100AA000014E10EB0E0041EB1141401841F10001E5
:100AB0004FEAD00040EA41704FEAD10110EB8005C7
:100AC0004FEA810444EA907444EB01046D1944EB4D
:100AD0000404521BA3414FF0000348BF0A3200D563
:100AE00030BD401C41F1000130BD00002DE9F04156
:100AF0001F46044603260168072A01F4006004DB50
:100B000008B116A505E016A503E008B115A500E09B
:100B100015A521F010002060A069C01EA0610FB1D2
:100B2000401EA0612046FFF797FB4FB1D4E9012199
:100B300038469047206A401C2062C01C206206E0B4
:100B4000206AFAE7D4E9012115F8010B9047761ED7
:100B5000F8D22046FFF796FBBDE8F0814E414E00EB
:100B60006E616E00494E4600696E66002DE9F047E1
:100B7000814616468AB0334878440DC88DE80D008A
:100B800030487844801C03AC0DC884E80D0041F661
:100B90009B300844372190FBF1F290FBF1F5A5F171
:100BA000800501FB12041B3C02D56442012000E0D9
:100BB0000020DFF890A080460027FA44AAF1BE0A80
:100BC0000DE0E00709D03246684607EB47010AEB23
:100BD000810100F037FB8DE8070064107F1C002CBA
:100BE000EFD1184F7F44AC3F18E0E80714D007EB73
:100BF00004100DF1180A90E80E008AE80E00C06893
:100C0000F04201D198190890324606A903A800F0D5
:100C100019FB03AB83E807006D10641C002DE4D1C1
:100C200032466946B8F1000F03A802D000F0F6FA88
:100C300001E000F007FBC9E90001C9F808200AB08B
:100C4000BDE8F087187F0000004870475C01002075
:100C50007546FFF7F9FFAE4605006946534620F09A
:100C60000700854618B020B5FFF7D0FABDE8204050
:100C70004FF000064FF000074FF000084FF0000B58
:100C800021F00701AC46ACE8C009ACE8C009ACE80B
:100C9000C009ACE8C0098D46704710B50446AFF3F3
:100CA00000802046BDE81040FFF79CBA4FF0013CA1
:100CB00050F8042B51F8043B9A4221D1A2EB0C03CB
:100CC000934313EACC1317D150F8042B51F8043B8B
:100CD0009A4215D1A2EB0C03934313EACC130BD128
:100CE00050F8042B51F8043B9A4209D1A2EB0C03B3
:100CF000934313EACC13DBD04FF00000704700BFE2
:100D0000D01A01BAB1FA81F101F0180122FA01F00A
:100D1000CB40C1F12001DBB2C0B2C01A2CFA01F302
:100D2000D11A914311EAC311E6D170470149182045
:100D3000ABBEFEE72600020070475FEA400C08BF2A
:100D400091F0000F4FEA8C234FEAC12243EA515140
:100D50004FEA1C5018BF00F5F0404FEA300018BFB2
:100D600041F000415FEA6C5C00F02980BCF1FF3F7C
:100D700008BF40F080407047130C06BF12044FF0CC
:100D8000100C4FF0000C130E04BF12020CF1080CF3
:100D9000130F04BF12010CF1040C930F04BF920057
:100DA0000CF1020CD30F04BF52000CF1010C1146E0
:100DB0004FF00002A0F11F00A0EB0C00704711F0F3
:100DC000004F08BF704731F000413FF4D5AF0B0C26
:100DD00006BF09044FF0100C4FF0000C0B0E04BFBF
:100DE00009020CF1080C0B0F04BF09010CF1040CF3
:100DF0008B0F04BF89000CF1020CCB0F04BF49001C
:100E00000CF1010CCCF12003A0EB0C0022FA03F34F
:100E100002FA0CF241EA030100F10100704720F0F0
:100E20007F4C80EA030023F07F47ACEB070303F518
:100E30007C5300F0004003F1FF032DE980494FEAA5
:100E4000154B09B44FEA144325EA0B4E24EA034834
:100E50000FF2042606EB132749083E785FEA3202B8
:100E600003FB0667C7F5000707FB06F64FEA543792
:100E70004FEAD64606F1020607FB066CCCF1005C91
:100E80004FEA1C472CEA074C07FB06F40CFB06F55F
:100E900004EB15464FEA961634BF00204FF0004091
:100EA0004FEAD13706FB07FC4FEA1C4C0CFB0BF753
:100EB000D21B03FB0CF761EB07010CFB0EF7B0EB49
:100EC000074072EB17420CFB08F734BFA2EB074256
:100ED000B2EB074261EB17414FEA0C444FEA91072E
:100EE00006FB07FC4FEA1C4C0CFB0BF7B0EBC740B2
:100EF00072EB573203FB0CF734BFA2EBC742B2EBE5
:100F0000C74261EB57310CFB0EF7B0EBC70072EB39
:100F100057720CFB08F734BFA2EBC702B2EBC70253
:100F200061EB5771039F4FEA816141EA921104EB33
:100F3000CC044FEAD1374FEA826206FB07FC42EA53
:100F400090124FEA80604FEA1C4C0CFB0BF7D21B4F
:100F500003FB0CF761EB07010CFB0EF7B0EB07404E
:100F600072EB17420CFB08F734BFA2EB0742B2EB5F
:100F7000074261EB17414FEA8C554FEA910704EBAA
:100F80009C2406FB07FC4FEA1C4C0CFB0BF7B0EB58
:100F9000C74072EB573203FB0CF734BFA2EBC742DA
:100FA000B2EBC74261EB57310CFB0EF7B0EBC70059
:100FB00072EB57720CFB08F734BFA2EBC702B2EB1F
:100FC000C70261EB577115EB4C254FEA816141EA8D
:100FD00092114FEA82624FEAD13742EA901206FB41
:100FE00007FC44F100044FEA80604FEA1C4C0CFB04
:100FF0000BF7D21B03FB0CF761EB07010CFB0EF7A1
:10100000B0EB074072EB17420CFB08F734BFA2EBC2
:101010000742B2EB074261EB174115EB1C154FEA93
:10102000813141EA92414FEA823242EA90424FEAEC
:1010300080304FEA0C7644F1000448EA03434EEA5C
:101040000B484FF0000EB2EB080C71EB030724BF06
:10105000624639464EEB0E0E4FF0000B001852411F
:1010600049414BEB0B0BB2EB080C71EB03077BF127
:10107000000B24BF624639464EEB0E0E4FF0000BBC
:101080000018524149414BEB0B0BB2EB080C71EBD2
:1010900003077BF1000B24BF624639464EEB0E0E70
:1010A00051EA020718BF46F0010616EB0E7655F11D
:1010B000000254F1000103D5BDE88901BDE80088B4
:1010C000BDE88901BDE80048B619524141EB010174
:1010D000A3F10103704780807F7E7D7C7B7A7978E5
:1010E000777676757473727171706F6E6E6D6C6CED
:1010F0006B6A6A696868676666656464636362618F
:101100006160605F5F5E5E5D5D5C5C5B5B5A5A590F
:10111000595858575756565555555454535352527B
:101120005251515050504F4F4F4E4E4D4D4D4C4CD3
:101130004C4B4B4B4A4A4A4949494848484747471C
:101140004746464645454544444444434343434259
:10115000424242414141002B26D4770021D01CB5A8
:101160004FEA370703B44FF010004FF010014FF073
:1011700000000FBCBDE810400BF1010BBBF1010FEB
:1011800008BF5FEA170722BF12F1010211F1010146
:101190004FF0004143F1000300F0004043EA00003B
:1011A0007047F9D35708DAE746EA064613F1400FCD
:1011B0004FEA16461FDD13F1200FDFBF16430A4624
:1011C000002120335B42C8D0C3F1200746EA06461F
:1011D00002FA07F74FEA164646EA0706C3F1200768
:1011E00022FA03F201FA07F721FA03F14FF00003A4
:1011F00042EA0702B1E746EA020646EA06464FEA35
:10120000164646EA0106BCBF46EA0646360C4FF0D3
:1012100000034FF000024FF000019EE72DE9C048A7
:10122000934630B491E8380007C831EA400C48BF13
:1012300034EA430C03D5FFF7F2FDFFF78CFFF0BC57
:10124000BDE800882DE9C048934630B491E83800E5
:1012500007C810F0804F08BF13F0804F03D100F093
:1012600005F8FFF778FFF0BCBDE8008820F07F4765
:1012700080EA030023F07F4C07EB0C03A3F57C53BB
:1012800000F00040A3F1FE0392F0000F00F0B380E5
:1012900095F0000F00F077802DE901494FEA1140E9
:1012A0004FEA144621EA004800FB06FC24EA064700
:1012B00008FB06F607FB08F800FB07F718EB0648E3
:1012C0004CEB164C4FEA124B18EB07484FEA154609
:1012D0004CEB174022EA0B4E0BFB06FC25EA0647B7
:1012E0000EFB06F607FB0EFE0BFB07F71EEB064E8A
:1012F0004CEB164C4FF000061EEB074E4CEB174B19
:1013000018EB0B0840F1000018EB0E0B58EB00082F
:1013100040F100008F1A4FF000013CBFC943661B2B
:1013200014BFB5EB040C00213CBFC943F61B4FEAC8
:1013300017444EEA8E0E27EA04454FEA1C4704FB89
:1013400007622CEA074C05FB07F70CFB05F604FBCC
:101350000CFC16EB074642EB174216EB0C4642EB31
:101360001C421BEB060658EB0202414146EA9E0670
:1013700001D5BDE80189B619524141EB0101A3F144
:101380000103BDE801894FEA14454FEA114724EAF9
:10139000054621EA074C05FB07F406FB07F70CFBA3
:1013A00006F105FB0CFC11EB074144EB17444FEA37
:1013B000124711EB0C4144EB1C4422EA074C05FB9D
:1013C00007F206FB07F70CFB06F605FB0CFC16EB19
:1013D000074642EB174216EB0C4642EB1C456A18D7
:1013E00054F1000148BF7047B619524141EB010169
:1013F000A3F10103704795F0000F37D04FEA114277
:101400004FEA144721EA024624EA074C02FB07F19F
:1014100006FB07F70CFB06F402FB0CFC14EB07447D
:1014200041EB17414FEA154714EB0C4441EB1C41CB
:1014300025EA074C02FB07F506FB07F70CFB06F64F
:1014400002FB0CFC16EB074645EB174516EB0C466A
:1014500045EB1C42121951F1000148BF7047B61903
:10146000524141EB0101A3F1010370474FEA1445DA
:101470004FEA114724EA054621EA074C05FB07F12C
:1014800006FB07F70CFB06F24FF0000605FB0CFC11
:1014900012EB074241EB174112EB0C4251EB1C419E
:1014A00048BF7047921841EB0101A3F10103704757
:1014B00010B5044800F03EFABDE81040024800F0C4
:1014C00039BA00006C0000209C00002070B5044672
:1014D00000688168C943C90717D1816821F00101FB
:1014E000816000F0C9FD05460AE000BF00F0C4FDC0
:1014F000401B022804D920688068C043C00706D07A
:1015000020688068C043C007F0D0002070BDA06A8A
:1015100040F01000A062E06A40F00100E0620120AB
:1015200070BD0000F8B5002604460096006881688A
:10153000C943C9072DD0816841F001018160164877
:1015400016490068B0FBF1F000E0401E0090002852
:10155000FBD100F091FD054616E000BF00F08CFDC8
:10156000401B022810D920688068C043C0070BD0F8
:10157000A06A40F01000A062E06A40F00100E06262
:1015800084F824600120F8BD20688068C043C0074B
:10159000E4D10020F8BD00003800002040420F00D8
:1015A000FEE7000070B5002400F028F8124D04E0BA
:1015B000641CE4B2012004F099FB0221284600F0EB
:1015C00051FD10B1642CF3D30FE0642C0DD2002434
:1015D00004E0641CE4B2012004F088FB02212846E8
:1015E00000F040FD18B1642C04D3002070BD642CC1
:1015F000EFD3FAE7012070BD002001401FB50220A3
:10160000009000200190012002906946014800F0FE
:101610002DFC1FBD002001401FB5022000900120BD
:1016200001900290032003906946024800F01EFCDE
:101630001FBD00000020014070B50024134D04E0E0
:10164000641CE4B2012004F051FB0221284600F0A2
:1016500009FD012801D1642CF2D3002404E0641CAC
:10166000E4B2012004F042FB0221284600F0FAFC1B
:1016700008B9642CF3D3282004F038FB0221284653
:1016800000F0F0FC012800D0002070BD00200140D7
:1016900070B5002004464006050EFFF7CDFF641C20
:1016A0002843E4B2082CF6D370BD00002DE9FC47B6
:1016B0001D4616468946804600F028F8FFF772FF5F
:1016C000012802D00020BDE8FC8700244FEA0D0766
:1016D000FFF7DEFF3855641CE4B2052CF8D39DF803
:1016E00000209DF801309DF802109DF80300D418E9
:1016F0000F183C449DF80470BC4205D132702B7029
:1017000088F8001089F800000120DCE710B5FFF729
:1017100083FF094C00220221204600F0A8FC14207F
:1017200000F052FB01220221204600F0A0FCBDE89F
:1017300010401E2004F0DABA00200140704772B653
:10174000FEE7000030B5B3F5804F05D06FF0704173
:1017500040F82210002030BD8C690B688D6823434F
:101760004C688989240144EA0524234343EA014162
:1017700050F82230014C23401943E9E70000F0CF34
:1017800010B50A6850F8223023F0010340F82230E7
:101790008C68082C23D000234A682243CC681C4361
:1017A0000B6922431A434B690E4C1A43CB691A4307
:1017B0000B6A1A434B6A1A438B6A1A43CB6A1A4361
:1017C0000B6B1A438B6913434A6B09681A4350F831
:1017D0002130A343134340F82130002010BD4023A3
:1017E000DAE700007FFF0F0030B5D1E9003443EAAB
:1017F00004138C688D89240244EA054423430C8A2F
:10180000094D00EB820005EB045423430C7D6D0170
:1018100005EB0464896923430B43416801F04041AF
:101820000B434360002030BD0000F0FF7047000014
:10183000F8B50024009490F824202546012A12D0FF
:10184000012280F824204A681F23072A0DD2066847
:10185000776B521E02EB820293409F430B689340CA
:101860001F43776319E00220F8BD06680D2A0AD2EB
:10187000376BD21F02EB820293409F430B68934069
:101880001F43376309E0F76A0D3A02EB8202934087
:101890009F430B6893401F43F7620A68072306685B
:1018A0000A2A0AD3F7680A3A02EB420293409F439E
:1018B0008B6893401F43F76008E0376902EB4202F0
:1018C00093409F438B6893401F4337610A68102AF7
:1018D00001D0112A20D1124B02689A4217D1936885
:1018E0001B0219D4936843F400039360096810291C
:1018F00012D10C490C4A0968B1FBF2F101EB8101EC
:10190000490000E0491E00910029FBD104E0816AF2
:1019100041F020018162012480F824502046F8BD66
:10192000002401403800002040420F00704700684A
:10193000C06C704770B50446006806684568A90623
:1019400025D5B10723D5A16AC90603D4A16A41F4FC
:101950000071A1628168C1F34241072910D1217B46
:1019600071B9416821F020014160A06A20F48070C3
:10197000A062A06AC00403D4A06A40F00100A06283
:101980002046FFF7D3FF21686FF012000860280699
:101990002ED570072CD5A06AC00603D4A06A40F4E7
:1019A0000050A06220688168C1F30231072909D084
:1019B0004168490515D48168C1F34241072910D116
:1019C000217B71B9416821F080014160A06A20F457
:1019D0008050A062A06AC00503D4A06A40F0010054
:1019E000A0622046FFF722FF21686FF00C0008601C
:1019F00068060CD5F0070AD0A06A40F48030A062D7
:101A0000204600F095F821686FF00100086070BD75
:101A10002DE9F04104004FF000057FD0A06A0026B8
:101A200028B9E66284F82460204600F083F8204656
:101A3000FFF74CFDA16AC90600D420B1A06A40F0AE
:101A40001000A0626AE0A16A21F4885141F002010D
:101A5000A162334923688B42E16904D1B1F5402F7B
:101A600001D14FF40021277B4FF4807C41EA4702EB
:101A700061680A43A168614508D0012906D00021A8
:101A800094F814E0BEF1010F02D00AE06146F7E7D6
:101A9000C7B1A76A47F02007A762E76A47F00107C6
:101AA000E7625F6827F469470F435F6023689968BE
:101AB0001C4F394011439960A16861450BD0012941
:101AC00009D00CE0DFF860E0A7690EEB47370F4361
:101AD00047F40061E5E7218A0D05A5F58015216829
:101AE000CB6A23F470032B43CB62216889680F4BC8
:101AF0001940914208D1E662A16A21F0020141F049
:101B00000101A162BDE8F081A06A20F0020040F06E
:101B10001000A062E06A40F00100E0620120F1E7FD
:101B2000003C0140FDF7E1FF00E0FFFFFE0E1FFF5C
:101B30007047000010B586B000210091019102911C
:101B400003911E4C03681E4903221E48A34211D173
:101B50008B6943F400738B618B6903F40073049306
:101B60008B6943F004038B61896901F004010491DE
:101B7000022113E0144CA3421DD18B6943F480630E
:101B80008B618B6903F4806304938B6943F00403D6
:101B90008B61896901F0040104911021CDE90012E3
:101BA000694600F063F900221146122000F0D0FAD5
:101BB000122000F0BFFA06B010BD00000024014062
:101BC0000010024000080140002801402DE9F843C0
:101BD00000270D460446009700F04EFA8046206824
:101BE0008168C90508D5A06A40F02000A06284F889
:101BF00024700120BDE8F8834168C90503D4C06A98
:101C000010F4700F2AD0022000F0D4FA3B49096882
:101C1000B1FBF0F62068036939490B424FEA6101D4
:101C20004FEAA1121FD1C3684FEA611C13EA0C0FDF
:101C300019D103690B4225D1C068104222D114206A
:101C400023E0681C0AD02DB100F016FAA0EB0800C2
:101C5000A84203D920680068800725D5206800685D
:101C60008007EED52DE003690B4202D1C168114215
:101C700006D0026923490A4206D1C068084203D14E
:101C8000542002E0292000E0FC204643009816E0A2
:101C9000681C11D02DB100F0EFF9A0EB0800A842AC
:101CA0000AD90098B04207D2A06A40F00400A062AE
:101CB00084F8247003209DE70098401C0090B042F7
:101CC000E6D321686FF012000860A06A40F400704B
:101CD000A06220688068C0F3424007280CD1207BB6
:101CE00050B9A06A20F48070A062A06AC00403D436
:101CF000A06A40F00100A06200207BE738000020CD
:101D0000244992244992240070B5044690F8240096
:101D100001280DD0012084F824002046FFF702FCA2
:101D200002004FF0000005D084F82400104670BD7A
:101D3000022070BDA16A40F20123994341F48071F1
:101D4000A1621F4D23681F49AB4218D10E6816F4DB
:101D5000702F14D0A66A46F48016A6620E68760527
:101D600005D5A66A26F4005646F48056A662A66AF1
:101D7000F6040AD5E66A26F00606E66206E0A66ADA
:101D800026F48016A6625E68E9E7E06284F8240023
:101D90006FF00200186020688368C3F34243072B8A
:101DA00005D1A84208D1096811F4702F04D08168C8
:101DB00041F480118160B9E7816841F4A001F9E73D
:101DC000002801400424014070B5044600F054F995
:101DD0000546601C02D004480078044400F04CF929
:101DE000401BA042FAD370BD2C00002030B585B056
:101DF000002000900190029003901748016800298C
:101E000027D1012101601548416941F48071416188
:101E10004069022400F48070049041F20100CDE991
:101E200000040325694603950D4800F01FF84FF69E
:101E30008070CDE90004694603950A4800F016F861
:101E40004CF23370CDE9000469460395064800F072
:101E50000DF805B030BD0000240000200010024045
:101E60000020014000180140001401402DE9F84F06
:101E7000DFF8C8910024A9F1040B23460F2709F1CC
:101E8000040AABF1040ED1E00125A54006EA0502E3
:101E9000AA4276D1DFF8A8C14E68A6EB0C086645C9
:101EA0002BD00DDC032E34D005DC36B3012E19D037
:101EB000022E2FD11BE0112E16D0122E2AD119E09E
:101EC000B8F5881F19D006DCB8F5803F15D0B8F5F5
:101ED000801F1FD111E0B8F5001F0ED0B8F5041F08
:101EE00018D10AE0CB6815E0CB681B1D12E0CB6867
:101EF00008330FE0CB680C330CE08B682BB1012B5F
:101F00004FF0080303D0456104E0042302E00561BB
:101F100000E00023FF2A01D8064601E000F1040694
:101F20004FEA840501D9A5F12005D6F8008007FA0B
:101F300005FC28EA0C0803FA05F548EA0508C6F886
:101F400000804D68ED0070D53E4DAE6946F001064B
:101F5000AE61AD6924F0030605F0010500953A4D28
:101F600006EB050CDCF80850A607360F07FA06F852
:101F700025EA0805DFF8D480404503D14FF000087A
:101F800025E052E0DFF8C880404502D14FF001085B
:101F90001DE0DFF8C080404502D14FF0020816E096
:101FA000DFF8B480404502D14FF003080FE0DFF8BE
:101FB000AC80404502D14FF0040808E0DFF8A08073
:101FC000404502D14FF0050801E04FF0060808FA3D
:101FD00006F848EA0508CCF808804D68D9F8006092
:101FE000ED024D4601D5164300E096432E604D6844
:101FF000DAF80060AD02554601D5164300E096437D
:102000002E604D68DBF80060AD035D4601D51643D8
:1020100000E096432E604D68DEF80060ED037546E3
:1020200001D5164300E096432E60641C0A681646EC
:10203000E2407FF429AFBDE8F88F000008040140BA
:102040000000111000100240000001400008014093
:10205000000C014000100140001401400018014034
:10206000001C01408068084000D0012070470AB180
:10207000016170470904FBE7014880687047000070
:102080002C0000200248816802781144816070476A
:102090002C000020074810B5016841F010010160D4
:1020A000032000F075F80F2000F006F800F024F887
:1020B000002010BD0020024070B50D4D04464FF4C5
:1020C0007A712878B1FBF0F00A490968B1FBF0F0A9
:1020D00000F0D2FB48B9102C07D200222146501E36
:1020E00000F036F800206C6070BD012070BD00006B
:1020F0002C000020380000200C4808B5816941F010
:1021000001018161816901F001010091C16941F022
:102110008051C161C06900F080500090044841685E
:1021200021F0E06141F00071416008BD0010024003
:1021300000000140002809DB00F01F02012191404E
:102140004009800000F1E020C0F800117047000055
:10215000F0B40E4B1B680C46C3F30223C3F1070512
:10216000042D00D90425191D072901D2002300E000
:10217000DB1E012606FA05F1491E214099409E40CA
:10218000761E16403143F0BC03F0D6BC0CED00E0E7
:10219000064900F0070208684FF6FF03184040EABE
:1021A0000220034A10430860704700000CED00E075
:1021B0000000FA0510B501460020284C04292FD054
:1021C0000BDC012930D0022929D100F05BF96168CC
:1021D000C1F38131491C49001FE0082920D0102992
:1021E0001DD161682268D20119D51D48C1F383420F
:1021F000C903805C0AD56168194AC1F34041921E47
:10220000515C184AB2FBF1F1484301E016494843DA
:102210006168490203D440000321B0FBF1F010BD16
:10222000BDE8104000F03EB9226AC2F30121012945
:1022300003D1920701D5C80310BD022905D1626AF6
:10224000920702D549F6404010BD0329FCD1216810
:102250008903F9D54FF2244010BD00000010024060
:10226000F089000800127A0000093D002DE9F843CA
:1022700005460078354CC00754D0E0690026C00000
:1022800008D4E06940F08050E061E069012600F088
:10229000805000902E480168C90512D4016880461C
:1022A00041F480710160FFF7E7FE074605E000BFDB
:1022B000FFF7E2FEC01B642823D8D8F80000C00551
:1022C000F6D5206A10F4407021D0A98801F440713D
:1022D00081421CD0206A1F49012220F440700A600C
:1022E00000220A602062C00711D0FFF7C5FE074632
:1022F00041F2883808E000BFFFF7BEFEC11B414530
:1023000002D90320BDE8F883206A8007F4D5206A4B
:10231000696820F44070084320621EB1E06920F033
:102320008050E0612878800705D56068A96820F4AE
:102330004040084360602878C00605D56068696938
:1023400020F48000084360600020DBE700100240BA
:1023500000700040400442422DE9F0470F4605005E
:1023600061D0434E306800F00700B84209D23068AF
:1023700020F0070038433060306800F00700B842B2
:1023800051D128683B4C810712D5400703D56068BE
:1023900040F4E06060602878000703D5606840F48E
:1023A000605060606068A96820F0F00008436060D9
:1023B0002878C00728D06868012810D02168022832
:1023C00010D0890700292EDA616821F0030101434A
:1023D0006160FFF751FE804641F288390DE02168C7
:1023E0008903EFE78901EDE7FFF746FEA0EB08015F
:1023F000494502D90320BDE8F0876068696800F0AC
:102400000C00B0EB810FEFD1306800F00700B8424C
:102410000BD9306820F0070038433060306800F096
:102420000700B84201D00120E5E72878400705D52C
:102430006068E96820F4E06008436060287800077D
:1024400006D56068296920F4605040EAC1006060E8
:1024500000F028F86168084AC1F30311515CC840D4
:102460000649086006480068FFF726FE0020C2E71C
:102470000020024000100240008A000838000020BE
:10248000300000200448054900684968044AC1F347
:10249000C221515CC8407047380000200010024043
:1024A000108A00080E4A51680E4801F00C03042BF4
:1024B00011D0082B0FD10C48C1F38343C903C05C72
:1024C0000AD55168084AC1F34041921E515C054A41
:1024D0005043B0FBF1F07047044948437047000097
:1024E0000010024000127A00DE89000800093D0059
:1024F0002DE9F84F040070D02078C04DC00749D0B6
:102500006868C0F38100012807D06868C0F38100C3
:10251000022809D16868C00306D52868800339D528
:1025200060680028E7D035E06068B0F5803F0BD0E8
:1025300010B1B0F5A02F11D0286820F480302860A9
:10254000286820F4802002E0286840F48030286069
:10255000606890B1FFF790FD06460AE0286840F4F5
:1025600080202860F0E700BFFFF786FD801B64280D
:1025700073D828688003F7D50CE0FFF77DFD064689
:1025800005E000BFFFF778FD801B6428F0D82868BD
:102590008003F7D420789A4E80074FF001094FF05E
:1025A000000839D5686810F00C0F07D06868C0F3D0
:1025B0008100022809D16868C00306D42868800712
:1025C00014D52069012808D110E02069B0B1C6F8FF
:1025D0000090FFF751FD074605E00AE1FFF74CFDCB
:1025E000C01B0228C4D828688007F7D5286861690D
:1025F00020F0F80040EAC10028600DE0C6F8008035
:10260000FFF73AFD074604E0FFF736FDC01B02283E
:1026100023D828688007F7D4207800072CD579487C
:10262000A169D9B1C0F80090FFF726FD074604E084
:10263000FFF722FDC01B02280FD8686A8007F7D574
:1026400071484FF4FA510068B0FBF1F0009000BF00
:102650000098411E0091FAD20EE080E0C0F80080A0
:10266000FFF70AFD074604E0FFF706FDC01B02283E
:1026700075D8686A8007F7D42078400760D5E86984
:102680000027C00008D4E86940F08050E861E8699C
:10269000012700F0805000905C480168C90513D400
:1026A0000168834641F480710160FFF7E5FC8246D2
:1026B00006E000BFFFF7E0FCA0EB0A0064284ED85C
:1026C000DBF80000C005F5D5E06801280AD008B1A4
:1026D000052813D0286A20F001002862286A20F01B
:1026E000040002E0286A40F001002862E06841F23C
:1026F000883B98B1FFF7C0FC82460BE0286A40F0A7
:1027000004002862EEE700BFFFF7B6FCA0EB0A0169
:1027100059455AD8286A8007F6D50CE0FFF7ACFC7B
:10272000824605E0FFF7A8FCA0EB0A0159454CD80A
:10273000286A8007F6D41FB1E86920F08050E8616C
:10274000E06988B36968C1F38101022944D0022895
:10275000C6F8608004D0FFF78FFC044638E034E010
:10276000FFF78AFC074604E0FFF786FCC01B02283F
:102770002BD828688001F7D4206AB0F5803F05D1B6
:102780006868A16820F4003008436860D4E9080153
:102790000843696821F4741108436860C6F86090C2
:1027A000FFF76AFC044606E025E000BFFFF764FC83
:1027B000001B022809D828688001F7D51BE000BF5C
:1027C000FFF75AFC001B022802D90320BDE8F88F4E
:1027D00028688001F4D40EE00128F7D06868226AE6
:1027E00000F48031914204D1616A00F47010884293
:1027F00001D00120EAE70020E8E7000000100240D5
:102800000000424280044242380000200070004034
:1028100070B515460E46040007D0A069B0F5807F5C
:1028200003D094F8410010B107E0012070BD0020F2
:1028300084F84000204600F01DF804F108012068EB
:10284000FEF79EFF3146A2682068FEF7CDFFD4E96F
:1028500001022946236BFEF775FFA168206850F836
:10286000212042F0010240F82120012084F841009B
:10287000002070BDFFF7BABA10B5401EB0F1807FDE
:1028800001D3012010BD4FF0E02460610F216017DB
:1028900003F052F90020A06107202061002010BD44
:1028A00070B590F83C20012A2CD0012480F83C40DF
:1028B000022280F83D2003685A689D6822F0700665
:1028C0000A6832435A60104B02689A420ED00F4B8E
:1028D0009A420BD0B2F1804F08D00D4B9A4205D0EE
:1028E0000C4B9A4202D00C4B9A4204D1496825F015
:1028F00080031943916080F83D40002180F83C102E
:10290000084670BD022070BD002C0140003401401B
:102910000004004000080040000C004010B5040016
:1029200003D094F83D0010B107E0012010BD002055
:1029300084F83C00204600F01FF8022084F83D0097
:10294000211D206803F068F8012084F8460084F80F
:102950003E0084F83F0084F8400084F8410084F889
:10296000420084F8430084F8440084F8450084F869
:102970003D00002010BD000008B5006806498842EF
:1029800008D10648C16941F00201C161C06900F087
:102990000200009008BD000000040040001002404A
:1029A00090F83D10012901D001207047022180F8E4
:1029B0003D1000680E4988420ED00E4988420BD067
:1029C000B0F1804F08D00C49884205D00B498842AD
:1029D00002D00B49884204D1816801F00701062921
:1029E00003D0016841F00101016000207047000040
:1029F000002C014000340140000400400008004069
:102A0000000C004001680A6A41F211131A4207D112
:102A10000A6A9B101A4203D10A6822F001020A6076
:102A2000012180F83D100020704770B5044690F8F1
:102A30003C000025012817D0012684F83C600220C4
:102A400084F83D002068826822F0770222F47F42F9
:102A500082600868502838D00DDC20284FD005DC73
:102A600090B3102811D14AE0022070BD302846D022
:102A700040280AD13BE060282FD070280DD0B0F557
:102A8000805F03D0B0F5005F12D0012584F83D606F
:102A9000002084F83C00284670BDCB68D1E90121B4
:102AA000206802F0FFFF2068816841F0770109E0AB
:102AB000CB68D1E90121206802F0F4FF2068816829
:102AC00041F480418160E1E719E0CA684968206803
:102AD00002F0FAFF5021206806E0CA6849682068C1
:102AE00003F003F86021206802F0E6FFCEE7CA6831
:102AF0004968206802F0E8FF40212068F4E7226876
:102B000001461046F0E7FEE710B50748FFF7FCF86E
:102B100001210548FFF75AF818B90348FEF707FFE7
:102B20000446204610BD00006C0000202DE9F04155
:102B3000244C254F254D012608B1267001E0207850
:102B400078B110212846FFF78DFA88B10821284670
:102B5000FFF788FA60B101213846FFF783FA0128B0
:102B600006D010212846FFF77DFA01281CD027E067
:102B70000A20FFF729F90020207010212846FFF7CE
:102B800071FA00280CD008212846FFF76BFA30B103
:102B900001213846FFF766FA012803D010E0012032
:102BA000BDE8F0810220FBE708212846FFF75AFA2A
:102BB000012805D101213846FFF754FA00B92670E3
:102BC0000320EDE708000020000801400018014044
:102BD00070B509490646002408884D8821464543BA
:102BE000204602F041FC02F065FD044801E0068049
:102BF000641CAC42FBD370BD3C0000200008006C9C
:102C00002DE9F04F2B492C260A46887192884FF403
:102C1000305A4FF4285B4FF4487541F6631E2B275A
:102C20004FF02A0C4FF0F00845F210594FF4A07401
:102C30004FF4F073B8B10C80A1F802804A4532D14C
:102C4000A1F808A0A1F80AB0380288810D804B8055
:102C5000A2F5A640103801D10B804C80BDE8F04FA2
:102C6000002002F041BBA1F800804C804A4507D10A
:102C7000A1F808A0A1F80AB04FF42C50888105E013
:102C800072450E8105D14F81A1F80CC00B804D809B
:102C900002E0A1F80AC08F81A2F5A6401038DDD16C
:102CA0000C804B80DAE70E81A1F80AC072458F8153
:102CB000CCD0CDE73C0000202DE9F0419046304AD1
:102CC0000D460446060A918810462F0A4089A1F550
:102CD000AA43103B0FD0A1F5C853633B24D002F0A8
:102CE000DDFC304602F0CEFCE0B202F0CBFC908975
:102CF00002F0D4FC36E002F0D1FC304602F0C2FC17
:102D00005089401C80B202F0C9FCE0B202F0BAFC6B
:102D1000908902F0C3FC384602F0B4FC9089401C54
:102D200080B202F0BBFC20E0917919B91188091B2F
:102D3000491E8CB202F0B2FC260A304602F0A2FC18
:102D4000E0B202F09FFC304602F09CFCE0B202F0E0
:102D500099FC908902F0A2FC384602F093FCE8B29C
:102D600002F090FC384602F08DFCE8B202F08AFCDA
:102D7000044910890880891CA1F80080BDE8F08111
:102D80003C000020FE07006C2DE9F0438146A2EBD9
:102D90000900401C1E4685B20C46DFF83080079FB4
:102DA0000FE02146484602F05FFB02F083FC002062
:102DB000414602E0401C0F8080B2A842FAD3641C56
:102DC000A4B2B442EDD9BDE8F08300000008006C65
:102DD0002DE9F05F3220FEF7F7FFD32002F05EFC12
:102DE00002F052FAFE4CA08002F04EFAA08002F0EF
:102DF0004BFA4FF6FF7505EA0020A08002F044FA76
:102E0000A18849F241380843A08041F6631947F28E
:102E1000897645F2103A45F210574FF4704B404511
:102E200071D0042002F03AFC02F02EFAA08002F0E9
:102E30002BFAA08002F028FA05EA0020A08002F018
:102E400023FAA1880843A0F50541A08052397DD01E
:102E5000B04258D0D42002F021FC02F015FAA08034
:102E600002F012FAA08002F00FFA05EA0020A0801A
:102E700002F00AFAA1880843A080504543D05521AA
:102E8000584602F021FCAA214FF2010002F01CFC7E
:102E900052214FF2020002F017FC08214FF203000A
:102EA00002F012FC01214FF2040002F00DFC4FF47D
:102EB000454002F0F3FB02F0E7F905EA0020A080AC
:102EC0004CF2015002F0EAFB02F0DEF9A18808435F
:102ED000A0803220FEF778FFA088B84213D0A1204E
:102EE00002F0DCFB02F0D0F9A08002F0CDF905EA97
:102EF0000020A08002F0C8F9A1880843A0F5AE41E7
:102F0000A08061397ED080B240457CD1CF2002F0D4
:102F1000C5FB002002F0B6FBC12002F0B3FB30205D
:102F200002F0B0FBED2002F0B9FB642002F0AAFB36
:102F3000032002F0A7FB122002F0A4FB812002F084
:102F4000A1FBE82002F0AAFB852000E0F5E002F0FA
:102F500099FB102002F096FB7A2002F093FBCB2025
:102F600002F09CFB392002F08DFB2C2002F08AFB42
:102F7000002002F087FB342002F084FB022002F0E4
:102F800081FBF72002F08AFB202002F07BFBEA2085
:102F900002F084FB002002F075FB002002F072FBBF
:102FA000C02002F07BFB1B2002F06CFBC12002F072
:102FB00075FB012002F066FBC52002F06FFB30209C
:102FC00002F060FB302002F05DFBC72002F066FBE0
:102FD000B72002F057FB362002F060FB482002F0D9
:102FE00051FB3A2002F05AFB552002F04BFBB12076
:102FF00002F054FB002002F045FB1A2002F042FBD5
:10300000B62001E09BE09EE002F048FB0A2002F0BF
:1030100039FBA22002F036FBF22002F03FFB002039
:1030200002F030FB262002F039FB012002F02AFBDF
:10303000E02002F033FB0F2002F024FB2A2002F0F4
:1030400021FB282002F01EFB082002F01BFB0E20B3
:1030500002F018FB082002F015FB542002F012FBCE
:10306000A92002F00FFB432002F00CFB0A2002F023
:1030700009FB0F2002F006FB002002F003FB0020FA
:1030800002F000FB002002F0FDFA002002F0FAFA44
:10309000E12002F003FB002002F0F4FA152002F018
:1030A000F1FA172002F0EEFA072002F0EBFA1120F5
:1030B00002F0E8FA062002F0E5FA2B2002F0E2FA2C
:1030C000562002F0DFFA3C2002F0DCFA052002F084
:1030D000D9FA102002F0D6FA0F2002F0D3FA3F20DE
:1030E00002F0D0FA3F2002F0CDFA0F2002F0CAFA27
:1030F0002B2002F0D3FA002002F0C4FA002002F0E4
:10310000C1FA012002F0BEFA3F2002F0BBFA2A20E9
:1031100002F0C4FA002002F0B5FA002002F0B2FA80
:10312000002002F0AFFAEF2002F0ACFA112002F01A
:10313000B5FA7820FEF748FEDCE0A68005E0A4F8AA
:10314000049001F0D9BFB0427DD1112002F0A6FA5F
:103150007820FEF739FE362002F0A0FA002002F0B7
:1031600091FA3A2002F09AFA052002F08BFAB22086
:1031700002F094FA0C2002F085FA0C2002F082FA98
:10318000002002F07FFA332002F07CFA332002F0B4
:1031900079FAB72002F082FA352002F073FABB20E8
:1031A00002F07CFA322002F06DFAC02002F076FACA
:1031B0000C2002F067FAC22002F070FA012002F03F
:1031C00061FAC32002F06AFA102002F05BFAC42010
:1031D00002F064FA202002F055FAC62002E0000056
:1031E0003C00002002F05AFA0F2002F04BFAD020E7
:1031F00002F054FAA42002F045FAA12002F042FAAB
:10320000E02002F04BFAD02002F03CFA002002F05D
:1032100039FA022002F036FA072002F033FA0A20C7
:1032200002F030FA282002F02DFA322002F02AFAB9
:10323000442002F027FA422002F024FA062002F08D
:1032400021FA0E2000E058E002F01CFA122002F0F1
:1032500019FA142002F016FA172002F013FAE120EE
:1032600002F01CFAD02002F00DFA002002F00AFA57
:10327000022002F007FA072002F004FA0A2002F006
:1032800001FA282002F0FEF9312002F0FBF9542067
:1032900002F0F8F9472002F0F5F90E2002F0F2F9F9
:1032A0001C2002F0EFF9172002F0ECF91B2002F0CD
:1032B000E9F91E2002F0E6F92A2002F0EFF90020D9
:1032C00002F0E0F9002002F0DDF9002002F0DAF966
:1032D000EF2002F0D7F92B2002F0E0F9002002F0F5
:1032E000D1F9002002F0CEF9012002F0CBF93F2005
:1032F00002F0C8F9292001F0FABE50457ED1ED2038
:1033000002F0CCF9012002F0BDF9FE2002F0BAF97A
:10331000EE2002F0C3F9DE2002F0B4F9212002F021
:10332000B1F9F12002F0BAF9012002F0ABF9DF2087
:1033300002F0B4F9102002F0A5F9C42002F0AEF9B1
:103340008F2002F09FF9C62002F0A8F9002002F0B9
:1033500099F9E22002F096F9E22002F093F9E220D6
:1033600002F090F9BF2002F099F9AA2002F08AF940
:10337000B02002F093F90D2002F084F9002002F051
:1033800081F90D2002F07EF9002002F07BF9112076
:1033900002F078F9002002F075F9192002F072F9B4
:1033A000002002F06FF9212002F06CF9002002F0F9
:1033B00069F92D2002F066F9002002F063F93D2042
:1033C00002F060F9002002F05DF95D2002F05AF988
:1033D000002002F057F95D2002F054F9002002F0BD
:1033E00051F9B12002F05AF9802002F04BF9002087
:1033F00002F048F98B2002F045F900E0FDE30020DF
:1034000002F040F9962002F03DF9002002F03AF96E
:10341000B22002F043F9002002F034F9002002F05B
:1034200031F9022002F02EF9002002F02BF90320DE
:1034300002F028F9002002F025F9B32002F02EF95D
:10344000002002F01FF9002002F01CF9002002F019
:1034500019F9002002F016F9002002F013F90020FB
:1034600002F010F9002002F00DF9002002F00AF934
:10347000002002F007F9002002F004F9002002F019
:1034800001F9002002F0FEF8002002F0FBF8002015
:1034900002F0F8F8002002F0F5F8002002F0F2F84F
:1034A000002002F0EFF8002002F0ECF8002002F01B
:1034B000E9F8002002F0E6F8002002F0E3F800202E
:1034C00002F0E0F8002002F0DDF8002002F0DAF867
:1034D000B42002F0E3F88B2002F0D4F8002002F0D0
:1034E000D1F8962002F0CEF8002002F0CBF8A1200F
:1034F00002F0C8F8002002F0C5F8B52002F0CEF8BE
:10350000022002F0BFF8002002F0BCF8032002F015
:10351000B9F8002002F0B6F8042002F0B3F8002059
:1035200002F0B0F8B62002F0B9F8002002F0AAF8D4
:10353000002002F0A7F8B72002F0B0F8002002F057
:10354000A1F8002002F09EF83F2002F09BF8002036
:1035500002F098F85E2002F095F8002002F092F850
:10356000642002F08FF8002002F08CF88C2002F02A
:1035700089F8002002F086F8AC2002F083F80020E1
:1035800002F080F8DC2002F07DF8002002F07AF8EA
:10359000702002F077F8002002F074F8902002F01A
:1035A00071F8002002F06EF8EB2002F06BF80020BA
:1035B00002F068F8DC2002F065F8002002F062F802
:1035C000B82002F06BF8002002F05CF8002002F056
:1035D00059F8002002F056F8002002F053F80020BD
:1035E00002F050F8002002F04DF8002002F04AF8F6
:1035F000002002F047F8BA2002F050F8242002F030
:1036000041F8002002F03EF8002002F03BF80020D4
:1036100002F038F8C12002F041F8202002F032F820
:10362000002002F02FF8542002F02CF8002002F0C5
:1036300029F8FF2002F026F8002002F023F8C2202B
:1036400002F02CF80A2002F01DF8002002F01AF80F
:10365000042002F017F8002002F014F8C32002F052
:103660001DF83C2002F00EF8002002F00BF83A2082
:1036700002F008F8002002F005F8392002F002F804
:10368000002001F0FFFF372001F0FCFF002001F0D7
:10369000F9FF3C2001F0F6FF002001F0F3FF362097
:1036A00001F0F0FF002001F0EDFF322001F0EAFF11
:1036B000002001F0E7FF2F2001F0E4FF002001F0DF
:1036C000E1FF2C2001F0DEFF002001F0DBFF2920CC
:1036D00001F0D8FF002001F0D5FF262001F0D2FF35
:1036E000002001F0CFFF242001F0CCFF002001F0EA
:1036F000C9FF242001F0C6FF002001F0C3FF2320F2
:1037000001F0C0FF002001F0BDFF3C2001F0BAFF36
:10371000002001F0B7FF362001F0B4FF002001F0D7
:10372000B1FF322001F0AEFF002001F0ABFF2F20EF
:1037300001F0A8FF002001F0A5FF2C2001F0A2FF5E
:10374000002001F09FFF292001F09CFF002001F0E4
:1037500099FF262001F096FF002001F093FF24201E
:1037600001F090FF002001F08DFF242001F08AFF7E
:10377000002001F087FF232001F084FF002001F0EA
:1037800081FFC42001F08AFF622001F07BFF00204E
:1037900001F078FF052001F075FF002001F072FFB5
:1037A000842001F06FFF002001F06CFFF02001F099
:1037B00069FF002001F066FF182001F063FF002080
:1037C00001F060FFA42001F05DFF002001F05AFF2E
:1037D000182001F057FF002001F054FF502001F0A5
:1037E00051FF002001F04EFF0C2001F04BFF0020A4
:1037F00001F048FF172001F045FF002001F042FFD3
:10380000952001F03FFF002001F03CFFF32001F084
:1038100039FF002001F036FFE62001F033FF0020E1
:1038200001F030FFC52001F039FF322001F02AFFFE
:10383000002001F027FF442001F024FF002001F0C8
:1038400021FF652001F01EFF002001F01BFF762004
:1038500001F018FF002001F015FF882001F012FF91
:10386000002001F00FFFC62001F018FF202001F01A
:1038700009FF002001F006FF172001F003FF0020E0
:1038800001F000FF012001F0FDFE002001F0FAFE32
:10389000C72001F003FF002001F0F4FE002001F03A
:1038A000F1FE002001F0EEFE002001F0EBFEC8204A
:1038B00001F0F4FE002001F0E5FE002001F0E2FE40
:1038C000002001F0DFFE002001F0DCFEC92001F045
:1038D000E5FE002001F0D6FE002001F0D3FE00201E
:1038E00001F0D0FE002001F0CDFE002001F0CAFE64
:1038F000002001F0C7FE002001F0C4FE002001F00E
:10390000C1FE002001F0BEFE002001F0BBFE002041
:1039100001F0B8FE002001F0B5FE002001F0B2FE7B
:10392000002001F0AFFE002001F0ACFE002001F00D
:10393000A9FEE02001F0B2FE162001F0A3FE002057
:1039400001F0A0FE1C2001F09DFE002001F09AFE77
:10395000212001F097FE002001F094FE362001F0B6
:1039600091FE002001F08EFE462001F08BFE00202B
:1039700001F088FE522001F085FE002001F082FE59
:10398000642001F07FFE002001F07CFE7A2001F02F
:1039900079FE002001F076FE8B2001F073FE0020FE
:1039A00001F070FE992001F06DFE002001F06AFE2A
:1039B000A82001F067FE002001F064FEB92001F0AC
:1039C00061FE002001F05EFEC42001F05BFE0020DD
:1039D00001F058FECA2001F055FE002001F052FE11
:1039E000D22001F04FFE002001F04CFED92001F062
:1039F00049FE002001F046FEE02001F043FE0020D9
:103A000001F040FEF32001F03DFE002001F03AFEFF
:103A1000E12001F043FE162001F034FE002001F009
:103A200031FE1C2001F02EFE002001F02BFE222092
:103A300001F028FE002001F025FE362001F022FED4
:103A4000002001F01FFE452001F01CFE002001F0C7
:103A500019FE522001F016FE002001F013FE642032
:103A600001F010FE002001F00DFE7A2001F00AFEA8
:103A7000002001F007FE8B2001F004FE002001F081
:103A800001FE992001F0FEFD002001F0FBFDA820C1
:103A900001F0F8FD002001F0F5FDB92001F0F2FD84
:103AA000002001F0EFFDC42001F0ECFD002001F04A
:103AB000E9FDCA2001F0E6FD002001F0E3FDD2207F
:103AC00001F0E0FD002001F0DDFDD82001F0DAFD7D
:103AD000002001F0D7FDE02001F0D4FD002001F02E
:103AE000D1FDF32001F0CEFD002001F0CBFDE2205E
:103AF00001F0D4FD052001F0C5FD002001F0C2FD5C
:103B00000B2001F0BFFD002001F0BCFD1B2001F0E7
:103B1000B9FD002001F0B6FD342001F0B3FD002016
:103B200001F0B0FD442001F0ADFD002001F0AAFD40
:103B30004F2001F0A7FD002001F0A4FD612001F05D
:103B4000A1FD002001F09EFD792001F09BFD0020E9
:103B500001F098FD882001F095FD002001F092FD14
:103B6000972001F08FFD002001F08CFDA62001F0D0
:103B700089FD002001F086FDB72001F083FD0020C3
:103B800001F080FDC22001F07DFD002001F07AFDF2
:103B9000C72001F077FD002001F074FDD12001F075
:103BA00071FD002001F06EFDD62001F06BFD0020BC
:103BB00001F068FDDD2001F065FD002001F062FDEF
:103BC000F32001F05FFD002001F05CFDE32001F037
:103BD00065FD052001F056FD002001F053FD0A208F
:103BE00001F050FD002001F04DFD1C2001F04AFDC8
:103BF000002001F047FD332000E0FAE201F042FD31
:103C0000002001F03FFD442001F03CFD002001F0C8
:103C100039FD502001F036FD002001F033FD622017
:103C200001F030FD002001F02DFD782001F02AFD8B
:103C3000002001F027FD882001F024FD002001F084
:103C400021FD972001F01EFD002001F01BFDA620A4
:103C500001F018FD002001F015FDB72001F012FD64
:103C6000002001F00FFDC22001F00CFD002001F04A
:103C700009FDC72001F006FD002001F003FDD12061
:103C800001F000FD002001F0FDFCD52001F0FAFC60
:103C9000002001F0F7FCDD2001F0F4FC002001F031
:103CA000F1FCF32001F0EEFC002001F0EBFCE4203D
:103CB00001F0F4FC012001F0E5FC002001F0E2FC41
:103CC000012001F0DFFC002001F0DCFC022001F00B
:103CD000D9FC002001F0D6FC2A2001F0D3FC002002
:103CE00001F0D0FC3C2001F0CDFC002001F0CAFC2A
:103CF0004B2001F0C7FC002001F0C4FC5D2001F066
:103D0000C1FC002001F0BEFC742001F0BBFC0020CF
:103D100001F0B8FC842001F0B5FC002001F0B2FCF9
:103D2000932001F0AFFC002001F0ACFCA22001F0D8
:103D3000A9FC002001F0A6FCB32001F0A3FC0020A8
:103D400001F0A0FCBE2001F09DFC002001F09AFCD7
:103D5000C42001F097FC002001F094FCCD2001F07C
:103D600091FC002001F08EFCD32001F08BFC0020A0
:103D700001F088FCDD2001F085FC002001F082FCD0
:103D8000F32001F07FFC002001F07CFCE52001F035
:103D900085FC002001F076FC002001F073FC00207F
:103DA00001F070FC002001F06DFC022001F06AFCC3
:103DB000002001F067FC292001F064FC002001F0E4
:103DC00061FC3C2001F05EFC002001F05BFC4B201C
:103DD00001F058FC002001F055FC5D2001F052FC80
:103DE000002001F04FFC742001F04CFC002001F099
:103DF00049FC842001F046FC002001F043FC9320A4
:103E000001F040FC002001F03DFCA22001F03AFC52
:103E1000002001F037FCB32001F034FC002001F059
:103E200031FCBE2001F02EFC002001F02BFCC42050
:103E300001F028FC002001F025FCCD2001F022FC3F
:103E4000002001F01FFCD32001F01CFC002001F039
:103E500019FCDC2001F016FC002001F013FCF3201B
:103E600001F010FC002001F00DFCE62001F016FC32
:103E7000112001F007FC002001F004FC342001F0C7
:103E800001FC002001F0FEFB562001F0FBFB0020AE
:103E900001F0F8FB762001F0F5FB002001F0F2FBC9
:103EA000772001F0EFFB002001F0ECFB662001F031
:103EB000E9FB002001F0E6FB882001F0E3FB002095
:103EC00001F0E0FB992001F0DDFB002001F0DAFBBE
:103ED000BB2001F0D7FB002001F0D4FB992001F0BA
:103EE000D1FB002001F0CEFB662001F0CBFB0020CF
:103EF00001F0C8FB552001F0C5FB002001F0C2FB1A
:103F0000552001F0BFFB002001F0BCFB452001F073
:103F1000B9FB002001F0B6FB432001F0B3FB002009
:103F200001F0B0FB442001F0ADFB002001F0AAFB42
:103F3000E72001F0B3FB322001F0A4FB002001F0E8
:103F4000A1FB552001F09EFB002001F09BFB762099
:103F500001F098FB002001F095FB662001F092FB38
:103F6000002001F08FFB672001F08CFB002001F0A6
:103F700089FB672001F086FB002001F083FB87208E
:103F800001F080FB002001F07DFB992001F07AFB1D
:103F9000002001F077FBBB2001F074FB002001F052
:103FA00071FB992001F06EFB002001F06BFB772084
:103FB00001F068FB002001F065FB442001F062FB8A
:103FC000002001F05FFB562001F05CFB002001F0B7
:103FD00059FB232001F056FB002001F053FB332056
:103FE00001F050FB002001F04DFB452001F04AFBA1
:103FF000002001F047FBE82001F050FB002001F019
:1040000041FB002001F03EFB992001F03BFB00202A
:1040100001F038FB872001F035FB002001F032FB76
:10402000882001F02FFB002001F02CFB772001F00D
:1040300029FB002001F026FB662001F023FB002075
:1040400001F020FB882001F01DFB002001F01AFB8D
:10405000AA2001F017FB002001F014FBBB2001F0A7
:1040600011FB002001F00EFB992001F00BFB00205A
:1040700001F008FB662001F005FB002001F002FBC7
:10408000552001F0FFFA002001F0FCFA552001F064
:10409000F9FA002001F0F6FA442001F0F3FA0020CA
:1040A00001F0F0FA442001F0EDFA002001F0EAFA04
:1040B000552001F0E7FA002001F0E4FAE92001F0D0
:1040C000EDFAAA2001F0DEFA002001F0DBFA002070
:1040D00001F0D8FA002001F0D5FA002001F0DEFA54
:1040E000AA2001F0CFFACF2001F0D8FA002001F089
:1040F000C9FA002001F0C6FA002001F0C3FA00203E
:1041000001F0C0FA002001F0BDFA002001F0BAFA77
:10411000002001F0B7FA002001F0B4FA002001F00D
:10412000B1FA002001F0AEFA002001F0ABFA002055
:1041300001F0A8FA002001F0A5FA002001F0A2FA8F
:10414000002001F09FFA002001F09CFA002001F00D
:1041500099FAF02001F0A2FA002001F093FA502021
:1041600001F090FA002001F08DFA002001F08AFAA7
:10417000002001F087FAF32001F090FA002001F00E
:1041800081FAF92001F08AFA062001F07BFA10206A
:1041900001F078FA292001F075FA002001F072FA96
:1041A0003A2001F07BFA552001F06CFA112001F061
:1041B00075FA6420FDF708FE292001F06FFA35201A
:1041C00001F06CFA002001F05DFA512001F066FA6E
:1041D000FF2001F057FA532001F060FA2C2001F083
:1041E00051FA552001F05AFA822001F04BFA2C20A6
:1041F000FDE3B8427DD15521584601F065FA4FF2F2
:104200000103AA21184601F05FFA4FF2020452217D
:10421000204601F059FA661C0821304601F054FA94
:10422000A71C0121384601F04FFA0D214FF4304010
:1042300001F04AFA0D214BF2010001F045FA0D217F
:104240004BF2020001F040FA4FF436483421404668
:1042500001F03AFA34214BF2016001F035FA3421D1
:104260004BF2026001F030FA4FF431490D2148461B
:1042700001F02AFA4BF2011A0D21504601F024FAFE
:104280000D214BF2021001F01FFA34214FF4374098
:1042900001F01AFA34214BF2017001F015FA3421C1
:1042A0004BF2027001F010FA00214FF4324001F09D
:1042B0000BFA00214BF2012001F006FA00214BF22B
:1042C000022001F001FA24214FF4384001F0FCF9FA
:1042D00024214BF6010001F0F7F924214BF60200EE
:1042E00001F0F2F901214FF43F4001F0EDF90F2107
:1042F00000E0FDE34FF4334001F0E6F90F214BF20B
:10430000013001F0E1F90F214BF2023001F0DCF94C
:1043100034214FF4394001F0D7F934214BF6011024
:1043200001F0D2F934214BF6021001F0CDF9082149
:104330004FF4354001F0C8F908214BF2015001F06B
:10434000C3F908214BF2025001F0BEF903214FF4EA
:10435000424001F0B9F924214FF43A4001F0B4F998
:1043600024214BF6012001F0AFF924214BF6022065
:1043700001F0AAF900214FF43C4001F0A5F97821A1
:104380004BF6014001F0A0F900214BF6024001F08C
:104390009BF900214FF43D4001F096F978214BF64E
:1043A000015001F091F900214BF6025001F08CF917
:1043B00000214FF43E4001F087F964214BF6016083
:1043C00001F082F900214FF4514001F07DF93321D1
:1043D0004DF2011001F078F900214DF2021001F0C8
:1043E00073F934214DF2031001F06EF900214DF202
:1043F000041001F069F93A214DF2051001F064F959
:1044000000214DF2061001F05FF94A214DF207102C
:1044100001F05AF900214DF2081001F055F95C2124
:104420004DF2091001F050F900214DF20A1001F08F
:104430004BF981214DF20B1001F046F900214DF2AC
:104440000C1001F041F9A6214DF20D1001F03CF9DC
:1044500000214DF20E1001F037F9E5214DF20F1059
:1044600001F032F901214DF2101001F02DF9132164
:104470004DF2111001F028F901214DF2121001F056
:1044800023F954214DF2131001F01EF901214DF2D0
:10449000141001F019F982214DF2151001F014F9F0
:1044A00001214DF2161001F00FF9CA214DF217103B
:1044B00001F00AF902214DF2181001F005F900216E
:1044C0004DF2191001F000F902214DF21A1001F01D
:1044D000FBF801214DF21B1001F0F6F802214DF21C
:1044E0001C1001F0F1F834214DF21D1001F0ECF830
:1044F00002214DF21E1001F0E7F867214DF21F1066
:1045000001F0E2F802214DF2201001F0DDF88421E3
:104510004DF2211001F0D8F802214DF2221001F0E5
:10452000D3F8A4214DF2231001F0CEF802214DF270
:10453000241001F0C9F8B7214DF2251001F0C4F89C
:1045400002214DF2261001F0BFF8CF214DF22710C5
:1045500001F0BAF802214DF2281001F0B5F8DE2181
:104560004DF2291001F0B0F802214DF22A1001F0AD
:10457000ABF8F2214DF22B1001F0A6F802214DF21A
:104580002C1001F0A1F8FE214DF22D1001F09CF845
:1045900003214DF22E1001F097F810214DF22F104B
:1045A00001F092F803214DF2301001F08DF8332123
:1045B0004DF2311001F088F803214DF2321001F074
:1045C00083F86D214DF2331001F07EF800214FF495
:1045D000524001F079F833214DF2012001F074F8D6
:1045E00000214DF2022001F06FF834214DF203203A
:1045F00001F06AF800214DF2042001F065F83A213B
:104600004DF2052001F060F800214DF2062001F086
:104610005BF84A214DF2072001F056F800214DF2D7
:10462000082001F051F85C214DF2092001F04CF80E
:1046300000214DF20A2001F047F881214DF20B20B4
:1046400001F042F800214DF20C2001F03DF8A621C6
:104650004DF20D2001F038F800214DF20E2001F04E
:1046600033F8E5214DF20F2001F02EF801214DF233
:10467000102001F029F813214DF2112001F024F847
:1046800001214DF2122001F01FF854214DF21320A8
:1046900001F01AF801214DF2142001F015F88221E1
:1046A0004DF2152001F010F801214DF2162001F015
:1046B0000BF8CA214DF2172001F006F802214DF245
:1046C000182001F001F800214DF2192000F0FCFF44
:1046D00002214DF21A2000F0F7FF01214DF21B20BC
:1046E00000F0F2FF02214DF21C2000F0EDFF34211A
:1046F0004DF21D2000F0E8FF02214DF21E2000F0D7
:10470000E3FF67214DF21F2000F0DEFF02214DF292
:10471000202000F0D9FF84214DF2212000F0D4FFA9
:1047200002214DF2222000F0CFFFA4214DF22320E0
:1047300000F0CAFF02214DF2242000F0C5FFB7218E
:104740004DF2252000F0C0FF02214DF2262000F09E
:10475000BBFFCF214DF2272000F0B6FF02214DF222
:10476000282000F0B1FFDE214DF2292000F0ACFF3F
:1047700002214DF22A2000F0A7FFF2214DF22B205A
:1047800000F0A2FF02214DF22C2000F09DFFFE213F
:104790004DF22D2000F098FF03214DF22E2000F065
:1047A00093FF10214DF22F2000F08EFF03214DF2D8
:1047B000302000F089FF33214DF2312000F084FFDA
:1047C00003214DF2322000F07FFF6D214DF23320A6
:1047D00000F07AFF00214FF4534000F075FF3321C1
:1047E0004DF2013000F070FF00214DF2023000F078
:1047F0006BFF34214DF2033000F066FF00214DF2D3
:10480000043000F061FF3A214DF2053000F05CFF0A
:1048100000214DF2063000F057FF4A214DF20730DB
:1048200000F052FF00214DF2083000F04DFF5C21F6
:104830004DF2093000F048FF00214DF20A3000F03F
:1048400043FF81214DF20B3000F03EFF00214DF27D
:104850000C3000F039FFA6214DF20D3000F034FF8E
:1048600000214DF20E3000F02FFFE5214DF20F3008
:1048700000F02AFF01214DF2103000F025FF132136
:104880004DF2113000F020FF01214DF2123000F006
:104890001BFF54214DF2133000F016FF01214DF2A1
:1048A000143000F011FF82214DF2153000F00CFFA2
:1048B00001214DF2163000F007FFCA214DF21730EA
:1048C00000F002FF02214DF2183000F0FDFE002141
:1048D0004DF2193000F0F8FE02214DF21A3000F0CE
:1048E000F3FE01214DF21B3000F0EEFE02214DF2ED
:1048F0001C3000F0E9FE34214DF21D3000F0E4FEE2
:1049000002214DF21E3000F0DFFE67214DF21F3014
:1049100000F0DAFE02214DF2203000F0D5FE8421B5
:104920004DF2213000F0D0FE02214DF2223000F095
:10493000CBFEA4214DF2233000F0C6FE02214DF241
:10494000243000F0C1FEB7214DF2253000F0BCFE4E
:1049500002214DF2263000F0B7FECF214DF2273074
:1049600000F0B2FE02214DF2283000F0ADFEDE2153
:104970004DF2293000F0A8FE02214DF22A3000F05D
:10498000A3FEF2214DF22B3000F09EFE02214DF2EB
:104990002C3000F099FEFE214DF22D3000F094FEF7
:1049A00003214DF22E3000F08FFE10214DF22F30FA
:1049B00000F08AFE03214DF2303000F085FE3321F5
:1049C0004DF2313000F080FE03214DF2323000F024
:1049D0007BFE6D214DF2333000F076FE00214FF466
:1049E000544000F071FE33214DF2014000E07EE3BF
:1049F00000F06AFE00214DF2024000F065FE342115
:104A00004DF2034000F060FE00214DF2044000F042
:104A10005BFE3A214DF2054000F056FE00214DF2BA
:104A2000064000F051FE4A214DF2074000F04CFED6
:104A300000214DF2084000F047FE5C214DF2094094
:104A400000F042FE00214DF20A4000F03DFE8121BF
:104A50004DF20B4000F038FE00214DF20C4000F00A
:104A600033FEA6214DF20D4000F02EFE00214DF246
:104A70000E4000F029FEE5214DF20F4000F024FE2B
:104A800001214DF2104000F01FFE13214DF21140A4
:104A900000F01AFE01214DF2124000F015FE5421E3
:104AA0004DF2134000F010FE01214DF2144000F0D1
:104AB0000BFE82214DF2154000F006FE01214DF261
:104AC000164000F001FECA214DF2174000F0FCFD37
:104AD00002214DF2184000F0F7FD00214DF219407F
:104AE00000F0F2FD02214DF21A4000F0EDFD00E071
:104AF00000E301214DF21B4000F0E6FD02214DF2E2
:104B00001C4000F0E1FD34214DF21D4000F0DCFDC1
:104B100002214DF21E4000F0D7FD67214DF21F40EB
:104B200000F0D2FD02214DF2204000F0CDFD8421A5
:104B30004DF2214000F0C8FD02214DF2224000F06C
:104B4000C3FDA4214DF2234000F0BEFD02214DF231
:104B5000244000F0B9FDB7214DF2254000F0B4FD2E
:104B600002214DF2264000F0AFFDCF214DF227404B
:104B700000F0AAFD02214DF2284000F0A5FDDE2143
:104B80004DF2294000F0A0FD02214DF22A4000F034
:104B90009BFDF2214DF22B4000F096FD02214DF2DB
:104BA0002C4000F091FDFE214DF22D4000F08CFDD7
:104BB00003214DF22E4000F087FD10214DF22F40D1
:104BC00000F082FD03214DF2304000F07DFD3321E5
:104BD0004DF2314000F078FD03214DF2324000F0FB
:104BE00073FD6D214DF2334000F06EFD00214FF456
:104BF000554000F069FD33214DF2015000F064FD95
:104C000000214DF2025000F05FFD34214DF20350BF
:104C100000F05AFD00214DF2045000F055FD3A21FC
:104C20004DF2055000F050FD00214DF2065000F00D
:104C30004BFD4A214DF2075000F046FD00214DF298
:104C4000085000F041FD5C214DF2095000F03CFDA0
:104C500000214DF20A5000F037FD81214DF20B503A
:104C600000F032FD00214DF20C5000F02DFDA62188
:104C70004DF20D5000F028FD00214DF20E5000F0D5
:104C800023FDE5214DF20F5000F01EFD01214DF2F4
:104C9000105000F019FD13214DF2115000F014FDD9
:104CA00001214DF2125000F00FFD54214DF213502E
:104CB00000F00AFD01214DF2145000F005FD8221A3
:104CC0004DF2155000F000FD01214DF2165000F09C
:104CD000FBFCCA214DF2175000F0F6FC02214DF208
:104CE000185000F0F1FC00214DF2195000F0ECFCDE
:104CF00002214DF21A5000F0E7FC01214DF21B5049
:104D000000F0E2FC02214DF21C5000F0DDFC3421E9
:104D10004DF21D5000F0D8FC02214DF21E5000F063
:104D2000D3FC67214DF21F5000F0CEFC02214DF262
:104D3000205000F0C9FC84214DF2215000F0C4FC49
:104D400002214DF2225000F0BFFCA4214DF223506D
:104D500000F0BAFC02214DF2245000F0B5FCB7215E
:104D60004DF2255000F0B0FC02214DF2265000F02B
:104D7000ABFCCF214DF2275000F0A6FC02214DF2F2
:104D8000285000F0A1FCDE214DF2295000F09CFCDF
:104D900002214DF22A5000F097FCF2214DF22B50E7
:104DA00000F092FC02214DF22C5000F08DFCFE210F
:104DB0004DF22D5000F088FC03214DF22E5000F0F2
:104DC00083FC10214DF22F5000F07EFC03214DF2A8
:104DD000305000F079FC33214DF2315000F074FC7A
:104DE00003214DF2325000F06FFC6D214DF2335033
:104DF00000F06AFC00214FF4564000F065FC3321BE
:104E00004DF2016000F060FC00214DF2026000F004
:104E10005BFC34214DF2036000F056FC00214DF2A2
:104E2000046000F051FC3A214DF2056000F04CFCAA
:104E300000214DF2066000F047FC4A214DF2076068
:104E400000F042FC00214DF2086000F03DFC5C21C6
:104E50004DF2096000F038FC00214DF20A6000F0CC
:104E600033FC81214DF20B6000F02EFC00214DF24D
:104E70000C6000F029FCA6214DF20D6000F024FC2E
:104E800000214DF20E6000F01FFCE5214DF20F6095
:104E900000F01AFC01214DF2106000F015FC132106
:104EA0004DF2116000F010FC01214DF2126000F093
:104EB0000BFC54214DF2136000F006FC01214DF271
:104EC000146000F001FC82214DF2156000F0FCFB43
:104ED00001214DF2166000F0F7FBCA214DF2176078
:104EE00000F0F2FB02214DF2186000F0EDFB002112
:104EF0004DF2196000F0E8FB02214DF21A6000F05B
:104F0000E3FB01214DF21B6000F0DEFB02214DF2BC
:104F10001C6000F0D9FB34214DF21D6000F0D4FB81
:104F200002214DF21E6000F0CFFB67214DF21F60A1
:104F300000F0CAFB02214DF2206000F0C5FB842185
:104F40004DF2216000F0C0FB02214DF2226000F022
:104F5000BBFBA4214DF2236000F0B6FB02214DF211
:104F6000246000F0B1FBB7214DF2256000F0ACFBEE
:104F700002214DF2266000F0A7FBCF214DF2276001
:104F800000F0A2FB02214DF2286000F09DFBDE2123
:104F90004DF2296000F098FB02214DF22A6000F0EA
:104FA00093FBF2214DF22B6000F08EFB02214DF2BB
:104FB0002C6000F089FBFE214DF22D6000F084FB97
:104FC00003214DF22E6000F07FFB10214DF22F6087
:104FD00000F07AFB03214DF2306000F075FB3321C5
:104FE0004DF2316000F070FB03214DF2326000F0B1
:104FF0006BFB6D214DF2336000F066FB5521584686
:1050000000F062FBAA21184600F05EFB5221204608
:1050100000F05AFB0821304600F056FB00213846CC
:1050200000F052FBCC21484600F04EFB00215046D8
:1050300000F04AFB0521404600F046FB70214FF48A
:10504000374000F041FB70214BF2017000F03CFB57
:1050500001214FF4384000F037FB03214BF60100EB
:1050600000F032FB03214BF6020000F02DFB032180
:105070004BF6030000F028FB02214FF43C4000F007
:1050800023FB00214BF6014000F01EFB00214BF6F4
:10509000024000F019FBD0214FF4494000F014FB0E
:1050A00002214CF6011000F00FFB50214CF60210CB
:1050B00000F00AFB50214CF6031000F005FB5021D4
:1050C0004CF6041000F000FB00214FF4545000F0A7
:1050D000FBFA55214FF4685000F0F6FA4FF488506F
:1050E00000F0DCFA0120FCF76FFE4FF4245000F0D2
:1050F000D5FAB9E04845FCD1E22000F0CFFA1D20F6
:1051000000F0C0FA022000F0BDFA042000F0BAFA64
:105110000120FCF759FEE02000F0C0FA012000F069
:10512000B1FA0A20FCF750FEE02000F0B7FA0320A5
:1051300000F0A8FA0C20FCF747FE012000F0AEFAC0
:105140000A20FCF741FEE62000F0A8FA2F2000F02C
:1051500099FAFF2000F096FAFF2000F093FAB020B1
:1051600000F09CFA202000F08DFA002000F08AFA6E
:10517000032000F087FA40F21F3000F083FA01208C
:1051800000F080FA40F2DF1000F07CFA002000F01E
:1051900079FAB42000F082FA042000F073FA40F2A9
:1051A0001F4000F06FFA002000F06CFA2E2000F093
:1051B00069FA002000F066FA002000F063FA00208F
:1051C00000F060FA002000F05DFAB62000F066FA08
:1051D000022000F057FA4FF4037000F053FA002059
:1051E00000F050FA172000F04DFA152000F04AFAAE
:1051F000002000F047FA002000F044FAF02000F010
:105200004DFA032000F03EFA292000F047FAD020A2
:1052100000F044FA002000F035FABE2000F03EFA1B
:10522000052000F02FFAFE2000F02CFA012000F0FB
:1052300029FA002000F026FA002000F023FA0020CE
:1052400000F020FAB82000F029FA032000F01AFA42
:10525000012000F017FABA2000F020FA012000F037
:1052600011FA642000F01AF80020FDF7C9FC0122B1
:1052700011460448FCF7FBFE2846BDE8F05FFDF749
:10528000A7BC0000000C0140034808B50088ADF839
:105290000000BDF8000008BD0008006C10B5024613
:1052A000BE2000F0FBF9052000F0ECF9104601F0FB
:1052B0003AFD4FF066320B4B01F084FD01F006FD24
:1052C00080B200F0DFF9012000F0DCF9FF2000F0EF
:1052D000D9F9002000F0D6F9BDE81040002000F018
:1052E000D1B900006666044070B55E4C00232146CB
:1052F000A279898841F66316012A01D01AB10CE01F
:10530000B14202D109E0B14207D1082805D2DFE855
:1053100000F0161812140C19100E082812D2DFE82B
:1053200000F0110406080A0C0E1080230AE0402346
:1053300008E0C02306E0202304E0602302E0A0236D
:1053400000E0E02345F21055A94202D14FF4585035
:1053500000E03620A1F51342413A03D0A1F5EE4218
:10536000893A01D143F00803194600F0ADF9A1884C
:10537000B1420AD098062088628802D5904202D3B2
:1053800003E0904201D9228060806089A94240D127
:1053900000F084F9002000F075F96089401C80B2AB
:1053A00000F07CF9002000F06DF96089801C80B26B
:1053B00000F074F92088401EC0F30F2000F062F95D
:1053C0006089C01C80B200F069F92078401EC0B22C
:1053D00000F058F9A08900F061F9002000F052F9BE
:1053E000A089401C80B200F059F9002000F04AF971
:1053F000A089801C80B200F051F96088401EC0F383
:105400000F2000F03FF9A089C01C80B200F046F9DF
:1054100021E000F043F9002000F034F9002000F012
:1054200031F92088401EC0F30F2000F02BF92078BE
:10543000401EC0B200F026F9A08900F02FF900202C
:1054400000F020F9002000F01DF96088401EC0F334
:105450000F2000F017F9A078BDE87040401EC0B2E0
:1054600000F010B93C000020F0B53B4A0D46044660
:10547000060A918810462F0A4089A1F5C853633B5C
:1054800016D0A1F5AA43103B4CD000F007F93046E6
:1054900000F0F8F8E0B200F0F5F8908900F0FEF8BE
:1054A000384600F0EFF8E8B2BDE8F04000F0EAB8A6
:1054B000917931B300F0F2F8304600F0E3F8E0B251
:1054C00000F0E0F81088401EC0F30F2000F0DAF87A
:1054D0001078401E5FFA80F000F0D4F8908900F058
:1054E000DDF8384600F0CEF8E8B200F0CBF850888E
:1054F000401EC0F30F2000F0C5F89078401EC0B2E7
:10550000D2E71188091B491E8CB200F0C7F80020B1
:1055100000F0B8F8002000F0B5F8200A00F0B2F86A
:10552000E0B2D9E700F0BAF8304600F0ABF85089A5
:10553000401C80B200F0B2F8E0B200F0A3F890890D
:1055400000F0ACF8384600F09DF89089401C80B21D
:1055500000F0A4F8A7E700003C0000202DE9FF4F71
:105560001D460C468A46580700D0012000EBD500A6
:1055700069084843203A00F0FF09D0B20026DFF85E
:105580009CB0029046E00C2D12D0102D15D0182D95
:1055900042D10298224900EBC00000BF01EB80001D
:1055A0004FF00008875D38060CD51E4800880DE0D6
:1055B00002981D4900EB4000F0E71C49029801EBFE
:1055C0000010EDE70D9830B916488088214682B268
:1055D0000098FDF771FB7806070E641CBBF802000B
:1055E000A4B2A04218D9A4EB0A00A84209D100989D
:1055F0005446401C80B20090BBF8001081420BD989
:1056000006E008F1010000F0FF08B8F1080FCAD366
:10561000761CF6B24E45B6D3BDE8FF8F3C000020A5
:10562000807C0008000000201C72000890760008B2
:105630002DE9F84F044600F0FF0910190D46DDE989
:105640000AB61FFA80F8581987B24FF0000A12E024
:10565000444503D305EB0B004C4685B2BD420FD247
:105660005B4629462046CDF800A0FFF777FF04EB04
:105670005B0084B2761C3278A2F120005E28E7D964
:10568000BDE8F88F01B5BDF80000ADF80000BDF829
:1056900000000149088008BD0008006C01B5BDF894
:1056A0000000ADF80000BDF800000149088008BD09
:1056B000FE07006C0248034900890880704700001B
:1056C0003C000020FE07006C024A1080901C018004
:1056D00070470000FE07006C3EB50024104800949F
:1056E000019402940D4984600160047304750125DE
:1056F00005614FF460214460C161FCF789F908B18C
:10570000FCF71DF80095CDE9015469460448FCF703
:105710008FF8002801D0FCF712F83EBD00240140AC
:105720006C0000203EB500241148009401940294BE
:105730000E498460016004730475012505614FF40E
:1057400060214460C161FCF763F908B1FBF7F7FF22
:105750000420CDE90005694602940548FCF768F885
:10576000002801D0FBF7EBFF3EBD00000028014000
:105770009C00002010B58EB01C216846FAF7A8FEE8
:105780001C2107A8FAF7A4FE1C484FF02041102264
:1057900001601B494160062181600021C160C0E9B0
:1057A00004128161C16113020162C0E9091393020D
:1057B000C0E90B1341638163022000900F20CDE903
:1057C000010203AC112384E80E0004240691CDE904
:1057D000074009AC092084E80F000D9107AA69462B
:1057E0000648FDF715F808B1FBF7A9FF0548C169A0
:1057F00041F48061C1610EB010BD0000CC000020FA
:10580000040100A0000001402DE9F04186B0002510
:1058100036480095019502950395816941F0400154
:105820008161816901F040010491816941F00401C5
:105830008161816901F004010491816941F00801ED
:105840008161816901F008010491816941F48071ED
:105850008161816901F480710491816941F02001C5
:1058600081618069DFF8888000F0200004900022C8
:1058700081214046FCF7FBFB1E4F0022AA2138463F
:10588000FCF7F5FB1820CDE90005012469460294D8
:105890001948FCF7EBFA02268DE8700069461748B4
:1058A000FCF7E4FA01AA009482E8700069464046D9
:1058B000FCF7DCFA0320CDE90250CDE9006469462B
:1058C0003846FCF7D3FAA8208DE8710069463846BF
:1058D000FCF7CCFA80208DE83100694640460394FD
:1058E000FCF7C4FA06B0BDE8F081000000100240E9
:1058F000000C014000200140001801400008014058
:1059000010B586B0002417480094019402940394C3
:1059100004941349059401604721C0E901144FF62E
:10592000FF71C0E9031480218161FCF7F7FF08B122
:10593000FBF705FF4FF48050009069460948FDF7DA
:1059400074F808B1FBF7FBFE049404A9054805941C
:10595000FCF7A6FF002801D0FBF7F1FE06B010BD52
:105960000004004014010020FEE7FEE77047704786
:1059700010B50848FCF7C8F904210648FCF726F9D9
:1059800018B90448FBF7D3FF04462046BDE8104091
:1059900001F0C9B99C000020FCF774BB30B595B08C
:1059A00028216846FAF794FD14210AA8FAF790FD19
:1059B00018210FA8FAF78CFD01210804CDE9001089
:1059C0000025029502240491CDE907404FF4E01030
:1059D00009906846FCF78CFD08B172B6FEE70AA98B
:1059E0000F2081E831004FF48060CDE90D050221E0
:1059F0000AA8FCF7B1FC08B172B6FEE74FF400400C
:105A000011900F940FA8FCF731FC002801D072B65A
:105A1000FEE715B030BD7047F0B502681C4B1D4D58
:105A20001D4E1E4F1E4C4FF0804C984209D0A04294
:105A300007D0604505D0A84203D0B04201D0B8429B
:105A400004D122F0700E4A6842EA0E02984209D050
:105A5000A04207D0604505D0A84203D0B04201D093
:105A6000B84203D122F44075CA682A434D6922F036
:105A700080022A4302608A68C2620A68826298428F
:105A800001D0A04201D10969016301214161F0BD4A
:105A9000002C01400004004000080040000C0040C1
:105AA0000034014010B5846842EA032224F47F44A4
:105AB0000A432243826010BD826822F070020A43CA
:105AC00042F007018160704710B5036A046A24F050
:105AD00001040462846924F0F00444EA021423F00F
